S013000046543233325465737430312E73726563DF
S113000012C02AC029C028C027C026C025C024C0C9
S113001023C022C021C020C01FC01EC01EC01CC0DF
S11300201BC01AC019C011241FBECFEDCDBF10E0F4
S1130030A0E6B0E0EAEDF2E002C005900D92A83827
S1130040B107D9F720E0A8E8B0E001C01D92A838B4
S1130050B207E1F775D03FC1D3CF1F920F920FB60D
S11300600F9211248F939F9380916000909161006F
S113007001979093610080936000181619066CF044
S11300808EE390E090936100809360008CB787507A
S11300908CBF98B381E0892788BB9F918F910F9083
S11300A00FBE0F901F901895CF93DF93009711F414
S11300B080E043C0FB01EC0188E0DE0101900D9279
S11300C08A95E1F743E050E062E670E0CE01EFD0BC
S11300D0892B51F143E050E066E670E0CE01E7D0B1
S11300E0892B21F143E050E06AE670E0CE01DFD0D5
S11300F0892BF1F043E050E06EE670E0CE01D7D0FA
S1130100892BC1F043E050E062E770E0CE01CFD02C
S1130110892B91F043E050E066E770E0CE01C7D050
S1130120892B31F689E009C083E007C085E005C06A
S113013086E003C087E001C088E0DF91CF91089595
S1130140CF93DF93CDB7DD27C051CDBFB89AC09808
S1130150BA9AC29812BE83E080BF84E083BF16BE01
S113016099EF9CBF89BF9FD01BB888E18AB986E00C
S113017083B97894C12CE12CF12C00E010E0DD244B
S1130180D394AA24A394B12C49E6642E41E6742E98
S11301904DE6842E56E6252E5BE6352E51E6452E99
S11301A054E6552E68E0CE01099654D0BE01675F2F
S11301B07F4FCE01019678DF8823A1F39FEFE91AE0
S11301C0F90A93E0F9220E5F1F4F1370CD24863095
S11301D0B1F038F4833059F0853021F7BD82AC8218
S11301E030C08830C9F070F08930C9F0DBCF698243
S11301F07A828B822C823D824E825F8222C0FD8273
S1130200EC821FC08C2D90E01816190614F481E0BE
S113021090E09D838C8315C01D830C8312C08C8158
S11302209D81009749F020B7206820BF9695879557
S11302309695879586BFB6CF80B7805880BF16BE87
S1130240B1CF68E0CE0101961CD0ACCF5D9BFECF50
S11302508CB908950F931F93CF938C01C62F462F0B
S113026050E060E070E030D0C15038F05F9BFECFCA
S11302708CB1F80181938F01F7CFCF911F910F912A
S113028008951F93CF93DF93C82FD92F162F180FDC
S11302901C1719F08991DADFFBCF5E9BFECFDF914B
S11302A0CF911F91089512B883E389B90895FB0192
S11302B0DC0104C08D910190801921F4415050401B
S11302C0C8F7881B990B0895DC0101C06D93415058
S10D02D05040E0F70895F894FFCFC2
S11302DA3E0077617900766572006D6963006D701E
S11302EA7700766F6C00706B6D006F70203A000DAA
S10B02FA0A0076616C3A000071
S9030000FC
