:1000000012C02AC029C028C027C026C025C024C0CD
:1000100023C022C021C020C01FC01EC01EC01CC0E3
:100020001BC01AC019C011241FBECFEDCDBF10E0F8
:10003000A0E6B0E0EEEDF2E002C005900D92A83827
:10004000B107D9F720E0A8E8B0E001C01D92A838B8
:10005000B207E1F777D041C1D3CF1F920F920FB60D
:100060000F9211248F939F93809160009091610073
:1000700001979093610080936000181619066CF048
:1000800081E090E090936100809360008CB787508E
:100090008CBF98B381E0892788BB9F918F910F9087
:1000A0000FBE0F901F901895CF93DF930097D1F15B
:1000B000FB01EC0188E0DE0101900D928A95E1F7E9
:1000C00043E050E062E670E0CE01F3D0892B61F1AD
:1000D00043E050E066E670E0CE01EBD0892B31F1D1
:1000E00043E050E06AE670E0CE01E3D0892B01F1F5
:1000F00043E050E06EE670E0CE01DBD0892BD1F01A
:1001000043E050E062E770E0CE01D3D0892BA1F04C
:1001100043E050E066E770E0CE01CBD0892B71F46C
:1001200087E00DC080E00BC081E009C083E007C01C
:1001300084E005C085E003C086E001C080E0DF9177
:10014000CF910895CF93DF93CDB7DD27C251CDBFB7
:10015000B89AC098BA9AC29812BE83EC80BF85E064
:1001600083BF80E886BF89EF8CBF84E089BF9DD0C4
:100170001BB888E18AB986E083B97894B12CC12C88
:10018000D12CE12CF12CCE0109969A8B898B33244A
:10019000339409891A89212C0F2EF9E68F2EF1E666
:1001A0009F2EFDE6AF2EF02D0F2EF6E64F2EFBE62E
:1001B0005F2EF1E66F2EF4E67F2EF02D68E0CE0183
:1001C00001964CD0BE016F5F7F4F802F912F6CDF67
:1001D0008823A1F39FEFC91AD90A22E0E20EF11C8D
:1001E000B3248430B9F028F4813041F0833071F0C9
:1001F000E5CF8530D1F0863011F1E0CF89869A863F
:10020000AB864C865D866E867F8623C081E08C87B8
:100210002D861FC09C2D8D2DC11424E0D20610F018
:100220009FEF83E09C878D8714C08B2D90E018167C
:10023000190614F481E0922D9D878C870AC09E2DAB
:100240008F2DE11424E0F20610F09FEF83E09C87ED
:100250008D8768E0CE01099619D0B0CF1F93CF9358
:10026000DF93EC01162F462F50E060E070E02ED0B7
:100270009FEF910F112331F05F9BFECF8CB18993DB
:100280009150D0F7DF91CF911F9108952FEF260F56
:10029000662341F0E82FF92F81915D9BFECF8CB949
:1002A0002150D0F75E9BFECF089512B883E389B941
:1002B0000895FB01DC0104C08D910190801921F4A7
:1002C00041505040C8F7881B990B0895DC0101C0CC
:0E02D0006D9341505040E0F70895F894FFCF31
:1002DE00010077617900766572006D6963006D705B
:1002EE007700766F6C00706B6D006F70203A000DAA
:0802FE000A0076616C3A000071
:00000001FF
